{
	"contracts/ReverseString.sol": {
		"ReverseString": {
			"abi": [
				{
					"inputs": [
						{
							"internalType": "string",
							"name": "input",
							"type": "string"
						}
					],
					"name": "reverse",
					"outputs": [
						{
							"internalType": "string",
							"name": "",
							"type": "string"
						}
					],
					"stateMutability": "pure",
					"type": "function"
				}
			],
			"devdoc": {
				"kind": "dev",
				"methods": {},
				"version": 1
			},
			"evm": {
				"assembly": "    /* \"contracts/ReverseString.sol\":59:608  contract ReverseString {... */\n  mstore(0x40, 0x80)\n  callvalue\n  dup1\n  iszero\n  tag_1\n  jumpi\n  revert(0x00, 0x00)\ntag_1:\n  pop\n  dataSize(sub_0)\n  dup1\n  dataOffset(sub_0)\n  0x00\n  codecopy\n  0x00\n  return\nstop\n\nsub_0: assembly {\n        /* \"contracts/ReverseString.sol\":59:608  contract ReverseString {... */\n      mstore(0x40, 0x80)\n      callvalue\n      dup1\n      iszero\n      tag_1\n      jumpi\n      revert(0x00, 0x00)\n    tag_1:\n      pop\n      jumpi(tag_2, lt(calldatasize, 0x04))\n      shr(0xe0, calldataload(0x00))\n      dup1\n      0x064767aa\n      eq\n      tag_3\n      jumpi\n    tag_2:\n      revert(0x00, 0x00)\n        /* \"contracts/ReverseString.sol\":152:606  function reverse(string memory input) public pure returns (string memory) {... */\n    tag_3:\n      tag_4\n      0x04\n      dup1\n      calldatasize\n      sub\n      dup2\n      add\n      swap1\n      tag_5\n      swap2\n      swap1\n      tag_6\n      jump\t// in\n    tag_5:\n      tag_7\n      jump\t// in\n    tag_4:\n      mload(0x40)\n      tag_8\n      swap2\n      swap1\n      tag_9\n      jump\t// in\n    tag_8:\n      mload(0x40)\n      dup1\n      swap2\n      sub\n      swap1\n      return\n    tag_7:\n        /* \"contracts/ReverseString.sol\":211:224  string memory */\n      0x60\n        /* \"contracts/ReverseString.sol\":237:259  bytes memory byteArray */\n      0x00\n        /* \"contracts/ReverseString.sol\":268:273  input */\n      dup3\n        /* \"contracts/ReverseString.sol\":237:274  bytes memory byteArray = bytes(input) */\n      swap1\n      pop\n        /* \"contracts/ReverseString.sol\":284:298  uint256 length */\n      0x00\n        /* \"contracts/ReverseString.sol\":301:310  byteArray */\n      dup2\n        /* \"contracts/ReverseString.sol\":301:317  byteArray.length */\n      mload\n        /* \"contracts/ReverseString.sol\":284:317  uint256 length = byteArray.length */\n      swap1\n      pop\n        /* \"contracts/ReverseString.sol\":342:343  1 */\n      0x01\n        /* \"contracts/ReverseString.sol\":332:338  length */\n      dup2\n        /* \"contracts/ReverseString.sol\":332:343  length <= 1 */\n      gt\n        /* \"contracts/ReverseString.sol\":328:357  if (length <= 1) return input */\n      tag_11\n      jumpi\n        /* \"contracts/ReverseString.sol\":352:357  input */\n      dup4\n        /* \"contracts/ReverseString.sol\":345:357  return input */\n      swap3\n      pop\n      pop\n      pop\n      jump(tag_10)\n        /* \"contracts/ReverseString.sol\":328:357  if (length <= 1) return input */\n    tag_11:\n        /* \"contracts/ReverseString.sol\":373:382  uint256 i */\n      0x00\n        /* \"contracts/ReverseString.sol\":385:386  0 */\n      0x00\n        /* \"contracts/ReverseString.sol\":373:386  uint256 i = 0 */\n      swap1\n      pop\n        /* \"contracts/ReverseString.sol\":368:563  for (uint256 i = 0; i < length/2; i++) ... */\n    tag_12:\n        /* \"contracts/ReverseString.sol\":399:400  2 */\n      0x02\n        /* \"contracts/ReverseString.sol\":392:398  length */\n      dup3\n        /* \"contracts/ReverseString.sol\":392:400  length/2 */\n      tag_15\n      swap2\n      swap1\n      tag_16\n      jump\t// in\n    tag_15:\n        /* \"contracts/ReverseString.sol\":388:389  i */\n      dup2\n        /* \"contracts/ReverseString.sol\":388:400  i < length/2 */\n      lt\n        /* \"contracts/ReverseString.sol\":368:563  for (uint256 i = 0; i < length/2; i++) ... */\n      iszero\n      tag_13\n      jumpi\n        /* \"contracts/ReverseString.sol\":430:440  bytes1 tmp */\n      0x00\n        /* \"contracts/ReverseString.sol\":443:452  byteArray */\n      dup4\n        /* \"contracts/ReverseString.sol\":453:454  i */\n      dup3\n        /* \"contracts/ReverseString.sol\":443:455  byteArray[i] */\n      dup2\n      mload\n      dup2\n      lt\n      tag_17\n      jumpi\n      tag_18\n      tag_19\n      jump\t// in\n    tag_18:\n    tag_17:\n      0x20\n      add\n      add\n      mload\n      0xf8\n      shr\n      0xf8\n      shl\n        /* \"contracts/ReverseString.sol\":430:455  bytes1 tmp = byteArray[i] */\n      swap1\n      pop\n        /* \"contracts/ReverseString.sol\":484:493  byteArray */\n      dup4\n        /* \"contracts/ReverseString.sol\":506:507  1 */\n      0x01\n        /* \"contracts/ReverseString.sol\":503:504  i */\n      dup4\n        /* \"contracts/ReverseString.sol\":494:500  length */\n      dup6\n        /* \"contracts/ReverseString.sol\":494:504  length - i */\n      tag_20\n      swap2\n      swap1\n      tag_21\n      jump\t// in\n    tag_20:\n        /* \"contracts/ReverseString.sol\":494:507  length - i -1 */\n      tag_22\n      swap2\n      swap1\n      tag_21\n      jump\t// in\n    tag_22:\n        /* \"contracts/ReverseString.sol\":484:508  byteArray[length - i -1] */\n      dup2\n      mload\n      dup2\n      lt\n      tag_23\n      jumpi\n      tag_24\n      tag_19\n      jump\t// in\n    tag_24:\n    tag_23:\n      0x20\n      add\n      add\n      mload\n      0xf8\n      shr\n      0xf8\n      shl\n        /* \"contracts/ReverseString.sol\":469:478  byteArray */\n      dup5\n        /* \"contracts/ReverseString.sol\":479:480  i */\n      dup4\n        /* \"contracts/ReverseString.sol\":469:481  byteArray[i] */\n      dup2\n      mload\n      dup2\n      lt\n      tag_25\n      jumpi\n      tag_26\n      tag_19\n      jump\t// in\n    tag_26:\n    tag_25:\n      0x20\n      add\n      add\n        /* \"contracts/ReverseString.sol\":469:508  byteArray[i] = byteArray[length - i -1] */\n      swap1\n      not(0xffffffffffffffffffffffffffffffffffffffffffffffffffffffffffffff)\n      and\n      swap1\n      dup2\n      0x00\n      byte\n      swap1\n      mstore8\n      pop\n        /* \"contracts/ReverseString.sol\":549:552  tmp */\n      dup1\n        /* \"contracts/ReverseString.sol\":522:531  byteArray */\n      dup5\n        /* \"contracts/ReverseString.sol\":544:545  1 */\n      0x01\n        /* \"contracts/ReverseString.sol\":541:542  i */\n      dup5\n        /* \"contracts/ReverseString.sol\":532:538  length */\n      dup7\n        /* \"contracts/ReverseString.sol\":532:542  length - i */\n      tag_27\n      swap2\n      swap1\n      tag_21\n      jump\t// in\n    tag_27:\n        /* \"contracts/ReverseString.sol\":532:545  length - i -1 */\n      tag_28\n      swap2\n      swap1\n      tag_21\n      jump\t// in\n    tag_28:\n        /* \"contracts/ReverseString.sol\":522:546  byteArray[length - i -1] */\n      dup2\n      mload\n      dup2\n      lt\n      tag_29\n      jumpi\n      tag_30\n      tag_19\n      jump\t// in\n    tag_30:\n    tag_29:\n      0x20\n      add\n      add\n        /* \"contracts/ReverseString.sol\":522:552  byteArray[length - i -1] = tmp */\n      swap1\n      not(0xffffffffffffffffffffffffffffffffffffffffffffffffffffffffffffff)\n      and\n      swap1\n      dup2\n      0x00\n      byte\n      swap1\n      mstore8\n      pop\n        /* \"contracts/ReverseString.sol\":416:563  {... */\n      pop\n        /* \"contracts/ReverseString.sol\":402:405  i++ */\n      dup1\n      dup1\n      0x01\n      add\n      swap2\n      pop\n      pop\n        /* \"contracts/ReverseString.sol\":368:563  for (uint256 i = 0; i < length/2; i++) ... */\n      jump(tag_12)\n    tag_13:\n      pop\n        /* \"contracts/ReverseString.sol\":588:597  byteArray */\n      dup2\n        /* \"contracts/ReverseString.sol\":573:598  return  string(byteArray) */\n      swap3\n      pop\n      pop\n      pop\n        /* \"contracts/ReverseString.sol\":152:606  function reverse(string memory input) public pure returns (string memory) {... */\n    tag_10:\n      swap2\n      swap1\n      pop\n      jump\t// out\n        /* \"#utility.yul\":7:82   */\n    tag_31:\n        /* \"#utility.yul\":40:46   */\n      0x00\n        /* \"#utility.yul\":73:75   */\n      0x40\n        /* \"#utility.yul\":67:76   */\n      mload\n        /* \"#utility.yul\":57:76   */\n      swap1\n      pop\n        /* \"#utility.yul\":7:82   */\n      swap1\n      jump\t// out\n        /* \"#utility.yul\":88:205   */\n    tag_32:\n        /* \"#utility.yul\":197:198   */\n      0x00\n        /* \"#utility.yul\":194:195   */\n      0x00\n        /* \"#utility.yul\":187:199   */\n      revert\n        /* \"#utility.yul\":211:328   */\n    tag_33:\n        /* \"#utility.yul\":320:321   */\n      0x00\n        /* \"#utility.yul\":317:318   */\n      0x00\n        /* \"#utility.yul\":310:322   */\n      revert\n        /* \"#utility.yul\":334:451   */\n    tag_34:\n        /* \"#utility.yul\":443:444   */\n      0x00\n        /* \"#utility.yul\":440:441   */\n      0x00\n        /* \"#utility.yul\":433:445   */\n      revert\n        /* \"#utility.yul\":457:574   */\n    tag_35:\n        /* \"#utility.yul\":566:567   */\n      0x00\n        /* \"#utility.yul\":563:564   */\n      0x00\n        /* \"#utility.yul\":556:568   */\n      revert\n        /* \"#utility.yul\":580:682   */\n    tag_36:\n        /* \"#utility.yul\":621:627   */\n      0x00\n        /* \"#utility.yul\":672:674   */\n      0x1f\n        /* \"#utility.yul\":668:675   */\n      not\n        /* \"#utility.yul\":663:665   */\n      0x1f\n        /* \"#utility.yul\":656:661   */\n      dup4\n        /* \"#utility.yul\":652:666   */\n      add\n        /* \"#utility.yul\":648:676   */\n      and\n        /* \"#utility.yul\":638:676   */\n      swap1\n      pop\n        /* \"#utility.yul\":580:682   */\n      swap2\n      swap1\n      pop\n      jump\t// out\n        /* \"#utility.yul\":688:868   */\n    tag_37:\n        /* \"#utility.yul\":736:813   */\n      0x4e487b7100000000000000000000000000000000000000000000000000000000\n        /* \"#utility.yul\":733:734   */\n      0x00\n        /* \"#utility.yul\":726:814   */\n      mstore\n        /* \"#utility.yul\":833:837   */\n      0x41\n        /* \"#utility.yul\":830:831   */\n      0x04\n        /* \"#utility.yul\":823:838   */\n      mstore\n        /* \"#utility.yul\":857:861   */\n      0x24\n        /* \"#utility.yul\":854:855   */\n      0x00\n        /* \"#utility.yul\":847:862   */\n      revert\n        /* \"#utility.yul\":874:1155   */\n    tag_38:\n        /* \"#utility.yul\":957:984   */\n      tag_60\n        /* \"#utility.yul\":979:983   */\n      dup3\n        /* \"#utility.yul\":957:984   */\n      tag_36\n      jump\t// in\n    tag_60:\n        /* \"#utility.yul\":949:955   */\n      dup2\n        /* \"#utility.yul\":945:985   */\n      add\n        /* \"#utility.yul\":1087:1093   */\n      dup2\n        /* \"#utility.yul\":1075:1085   */\n      dup2\n        /* \"#utility.yul\":1072:1094   */\n      lt\n        /* \"#utility.yul\":1051:1069   */\n      0xffffffffffffffff\n        /* \"#utility.yul\":1039:1049   */\n      dup3\n        /* \"#utility.yul\":1036:1070   */\n      gt\n        /* \"#utility.yul\":1033:1095   */\n      or\n        /* \"#utility.yul\":1030:1118   */\n      iszero\n      tag_61\n      jumpi\n        /* \"#utility.yul\":1098:1116   */\n      tag_62\n      tag_37\n      jump\t// in\n    tag_62:\n        /* \"#utility.yul\":1030:1118   */\n    tag_61:\n        /* \"#utility.yul\":1138:1148   */\n      dup1\n        /* \"#utility.yul\":1134:1136   */\n      0x40\n        /* \"#utility.yul\":1127:1149   */\n      mstore\n        /* \"#utility.yul\":917:1155   */\n      pop\n        /* \"#utility.yul\":874:1155   */\n      pop\n      pop\n      jump\t// out\n        /* \"#utility.yul\":1161:1290   */\n    tag_39:\n        /* \"#utility.yul\":1195:1201   */\n      0x00\n        /* \"#utility.yul\":1222:1242   */\n      tag_64\n      tag_31\n      jump\t// in\n    tag_64:\n        /* \"#utility.yul\":1212:1242   */\n      swap1\n      pop\n        /* \"#utility.yul\":1251:1284   */\n      tag_65\n        /* \"#utility.yul\":1279:1283   */\n      dup3\n        /* \"#utility.yul\":1271:1277   */\n      dup3\n        /* \"#utility.yul\":1251:1284   */\n      tag_38\n      jump\t// in\n    tag_65:\n        /* \"#utility.yul\":1161:1290   */\n      swap2\n      swap1\n      pop\n      jump\t// out\n        /* \"#utility.yul\":1296:1604   */\n    tag_40:\n        /* \"#utility.yul\":1358:1362   */\n      0x00\n        /* \"#utility.yul\":1448:1466   */\n      0xffffffffffffffff\n        /* \"#utility.yul\":1440:1446   */\n      dup3\n        /* \"#utility.yul\":1437:1467   */\n      gt\n        /* \"#utility.yul\":1434:1490   */\n      iszero\n      tag_67\n      jumpi\n        /* \"#utility.yul\":1470:1488   */\n      tag_68\n      tag_37\n      jump\t// in\n    tag_68:\n        /* \"#utility.yul\":1434:1490   */\n    tag_67:\n        /* \"#utility.yul\":1508:1537   */\n      tag_69\n        /* \"#utility.yul\":1530:1536   */\n      dup3\n        /* \"#utility.yul\":1508:1537   */\n      tag_36\n      jump\t// in\n    tag_69:\n        /* \"#utility.yul\":1500:1537   */\n      swap1\n      pop\n        /* \"#utility.yul\":1592:1596   */\n      0x20\n        /* \"#utility.yul\":1586:1590   */\n      dup2\n        /* \"#utility.yul\":1582:1597   */\n      add\n        /* \"#utility.yul\":1574:1597   */\n      swap1\n      pop\n        /* \"#utility.yul\":1296:1604   */\n      swap2\n      swap1\n      pop\n      jump\t// out\n        /* \"#utility.yul\":1610:1758   */\n    tag_41:\n        /* \"#utility.yul\":1708:1714   */\n      dup3\n        /* \"#utility.yul\":1703:1706   */\n      dup2\n        /* \"#utility.yul\":1698:1701   */\n      dup4\n        /* \"#utility.yul\":1685:1715   */\n      calldatacopy\n        /* \"#utility.yul\":1749:1750   */\n      0x00\n        /* \"#utility.yul\":1740:1746   */\n      dup4\n        /* \"#utility.yul\":1735:1738   */\n      dup4\n        /* \"#utility.yul\":1731:1747   */\n      add\n        /* \"#utility.yul\":1724:1751   */\n      mstore\n        /* \"#utility.yul\":1610:1758   */\n      pop\n      pop\n      pop\n      jump\t// out\n        /* \"#utility.yul\":1764:2189   */\n    tag_42:\n        /* \"#utility.yul\":1842:1847   */\n      0x00\n        /* \"#utility.yul\":1867:1933   */\n      tag_72\n        /* \"#utility.yul\":1883:1932   */\n      tag_73\n        /* \"#utility.yul\":1925:1931   */\n      dup5\n        /* \"#utility.yul\":1883:1932   */\n      tag_40\n      jump\t// in\n    tag_73:\n        /* \"#utility.yul\":1867:1933   */\n      tag_39\n      jump\t// in\n    tag_72:\n        /* \"#utility.yul\":1858:1933   */\n      swap1\n      pop\n        /* \"#utility.yul\":1956:1962   */\n      dup3\n        /* \"#utility.yul\":1949:1954   */\n      dup2\n        /* \"#utility.yul\":1942:1963   */\n      mstore\n        /* \"#utility.yul\":1994:1998   */\n      0x20\n        /* \"#utility.yul\":1987:1992   */\n      dup2\n        /* \"#utility.yul\":1983:1999   */\n      add\n        /* \"#utility.yul\":2032:2035   */\n      dup5\n        /* \"#utility.yul\":2023:2029   */\n      dup5\n        /* \"#utility.yul\":2018:2021   */\n      dup5\n        /* \"#utility.yul\":2014:2030   */\n      add\n        /* \"#utility.yul\":2011:2036   */\n      gt\n        /* \"#utility.yul\":2008:2120   */\n      iszero\n      tag_74\n      jumpi\n        /* \"#utility.yul\":2039:2118   */\n      tag_75\n      tag_35\n      jump\t// in\n    tag_75:\n        /* \"#utility.yul\":2008:2120   */\n    tag_74:\n        /* \"#utility.yul\":2129:2183   */\n      tag_76\n        /* \"#utility.yul\":2176:2182   */\n      dup5\n        /* \"#utility.yul\":2171:2174   */\n      dup3\n        /* \"#utility.yul\":2166:2169   */\n      dup6\n        /* \"#utility.yul\":2129:2183   */\n      tag_41\n      jump\t// in\n    tag_76:\n        /* \"#utility.yul\":1848:2189   */\n      pop\n        /* \"#utility.yul\":1764:2189   */\n      swap4\n      swap3\n      pop\n      pop\n      pop\n      jump\t// out\n        /* \"#utility.yul\":2209:2549   */\n    tag_43:\n        /* \"#utility.yul\":2265:2270   */\n      0x00\n        /* \"#utility.yul\":2314:2317   */\n      dup3\n        /* \"#utility.yul\":2307:2311   */\n      0x1f\n        /* \"#utility.yul\":2299:2305   */\n      dup4\n        /* \"#utility.yul\":2295:2312   */\n      add\n        /* \"#utility.yul\":2291:2318   */\n      slt\n        /* \"#utility.yul\":2281:2403   */\n      tag_78\n      jumpi\n        /* \"#utility.yul\":2322:2401   */\n      tag_79\n      tag_34\n      jump\t// in\n    tag_79:\n        /* \"#utility.yul\":2281:2403   */\n    tag_78:\n        /* \"#utility.yul\":2439:2445   */\n      dup2\n        /* \"#utility.yul\":2426:2446   */\n      calldataload\n        /* \"#utility.yul\":2464:2543   */\n      tag_80\n        /* \"#utility.yul\":2539:2542   */\n      dup5\n        /* \"#utility.yul\":2531:2537   */\n      dup3\n        /* \"#utility.yul\":2524:2528   */\n      0x20\n        /* \"#utility.yul\":2516:2522   */\n      dup7\n        /* \"#utility.yul\":2512:2529   */\n      add\n        /* \"#utility.yul\":2464:2543   */\n      tag_42\n      jump\t// in\n    tag_80:\n        /* \"#utility.yul\":2455:2543   */\n      swap2\n      pop\n        /* \"#utility.yul\":2271:2549   */\n      pop\n        /* \"#utility.yul\":2209:2549   */\n      swap3\n      swap2\n      pop\n      pop\n      jump\t// out\n        /* \"#utility.yul\":2555:3064   */\n    tag_6:\n        /* \"#utility.yul\":2624:2630   */\n      0x00\n        /* \"#utility.yul\":2673:2675   */\n      0x20\n        /* \"#utility.yul\":2661:2670   */\n      dup3\n        /* \"#utility.yul\":2652:2659   */\n      dup5\n        /* \"#utility.yul\":2648:2671   */\n      sub\n        /* \"#utility.yul\":2644:2676   */\n      slt\n        /* \"#utility.yul\":2641:2760   */\n      iszero\n      tag_82\n      jumpi\n        /* \"#utility.yul\":2679:2758   */\n      tag_83\n      tag_32\n      jump\t// in\n    tag_83:\n        /* \"#utility.yul\":2641:2760   */\n    tag_82:\n        /* \"#utility.yul\":2827:2828   */\n      0x00\n        /* \"#utility.yul\":2816:2825   */\n      dup3\n        /* \"#utility.yul\":2812:2829   */\n      add\n        /* \"#utility.yul\":2799:2830   */\n      calldataload\n        /* \"#utility.yul\":2857:2875   */\n      0xffffffffffffffff\n        /* \"#utility.yul\":2849:2855   */\n      dup2\n        /* \"#utility.yul\":2846:2876   */\n      gt\n        /* \"#utility.yul\":2843:2960   */\n      iszero\n      tag_84\n      jumpi\n        /* \"#utility.yul\":2879:2958   */\n      tag_85\n      tag_33\n      jump\t// in\n    tag_85:\n        /* \"#utility.yul\":2843:2960   */\n    tag_84:\n        /* \"#utility.yul\":2984:3047   */\n      tag_86\n        /* \"#utility.yul\":3039:3046   */\n      dup5\n        /* \"#utility.yul\":3030:3036   */\n      dup3\n        /* \"#utility.yul\":3019:3028   */\n      dup6\n        /* \"#utility.yul\":3015:3037   */\n      add\n        /* \"#utility.yul\":2984:3047   */\n      tag_43\n      jump\t// in\n    tag_86:\n        /* \"#utility.yul\":2974:3047   */\n      swap2\n      pop\n        /* \"#utility.yul\":2770:3057   */\n      pop\n        /* \"#utility.yul\":2555:3064   */\n      swap3\n      swap2\n      pop\n      pop\n      jump\t// out\n        /* \"#utility.yul\":3070:3169   */\n    tag_44:\n        /* \"#utility.yul\":3122:3128   */\n      0x00\n        /* \"#utility.yul\":3156:3161   */\n      dup2\n        /* \"#utility.yul\":3150:3162   */\n      mload\n        /* \"#utility.yul\":3140:3162   */\n      swap1\n      pop\n        /* \"#utility.yul\":3070:3169   */\n      swap2\n      swap1\n      pop\n      jump\t// out\n        /* \"#utility.yul\":3175:3344   */\n    tag_45:\n        /* \"#utility.yul\":3259:3270   */\n      0x00\n        /* \"#utility.yul\":3293:3299   */\n      dup3\n        /* \"#utility.yul\":3288:3291   */\n      dup3\n        /* \"#utility.yul\":3281:3300   */\n      mstore\n        /* \"#utility.yul\":3333:3337   */\n      0x20\n        /* \"#utility.yul\":3328:3331   */\n      dup3\n        /* \"#utility.yul\":3324:3338   */\n      add\n        /* \"#utility.yul\":3309:3338   */\n      swap1\n      pop\n        /* \"#utility.yul\":3175:3344   */\n      swap3\n      swap2\n      pop\n      pop\n      jump\t// out\n        /* \"#utility.yul\":3350:3489   */\n    tag_46:\n        /* \"#utility.yul\":3439:3445   */\n      dup3\n        /* \"#utility.yul\":3434:3437   */\n      dup2\n        /* \"#utility.yul\":3429:3432   */\n      dup4\n        /* \"#utility.yul\":3423:3446   */\n      mcopy\n        /* \"#utility.yul\":3480:3481   */\n      0x00\n        /* \"#utility.yul\":3471:3477   */\n      dup4\n        /* \"#utility.yul\":3466:3469   */\n      dup4\n        /* \"#utility.yul\":3462:3478   */\n      add\n        /* \"#utility.yul\":3455:3482   */\n      mstore\n        /* \"#utility.yul\":3350:3489   */\n      pop\n      pop\n      pop\n      jump\t// out\n        /* \"#utility.yul\":3495:3872   */\n    tag_47:\n        /* \"#utility.yul\":3583:3586   */\n      0x00\n        /* \"#utility.yul\":3611:3650   */\n      tag_91\n        /* \"#utility.yul\":3644:3649   */\n      dup3\n        /* \"#utility.yul\":3611:3650   */\n      tag_44\n      jump\t// in\n    tag_91:\n        /* \"#utility.yul\":3666:3737   */\n      tag_92\n        /* \"#utility.yul\":3730:3736   */\n      dup2\n        /* \"#utility.yul\":3725:3728   */\n      dup6\n        /* \"#utility.yul\":3666:3737   */\n      tag_45\n      jump\t// in\n    tag_92:\n        /* \"#utility.yul\":3659:3737   */\n      swap4\n      pop\n        /* \"#utility.yul\":3746:3811   */\n      tag_93\n        /* \"#utility.yul\":3804:3810   */\n      dup2\n        /* \"#utility.yul\":3799:3802   */\n      dup6\n        /* \"#utility.yul\":3792:3796   */\n      0x20\n        /* \"#utility.yul\":3785:3790   */\n      dup7\n        /* \"#utility.yul\":3781:3797   */\n      add\n        /* \"#utility.yul\":3746:3811   */\n      tag_46\n      jump\t// in\n    tag_93:\n        /* \"#utility.yul\":3836:3865   */\n      tag_94\n        /* \"#utility.yul\":3858:3864   */\n      dup2\n        /* \"#utility.yul\":3836:3865   */\n      tag_36\n      jump\t// in\n    tag_94:\n        /* \"#utility.yul\":3831:3834   */\n      dup5\n        /* \"#utility.yul\":3827:3866   */\n      add\n        /* \"#utility.yul\":3820:3866   */\n      swap2\n      pop\n        /* \"#utility.yul\":3587:3872   */\n      pop\n        /* \"#utility.yul\":3495:3872   */\n      swap3\n      swap2\n      pop\n      pop\n      jump\t// out\n        /* \"#utility.yul\":3878:4191   */\n    tag_9:\n        /* \"#utility.yul\":3991:3995   */\n      0x00\n        /* \"#utility.yul\":4029:4031   */\n      0x20\n        /* \"#utility.yul\":4018:4027   */\n      dup3\n        /* \"#utility.yul\":4014:4032   */\n      add\n        /* \"#utility.yul\":4006:4032   */\n      swap1\n      pop\n        /* \"#utility.yul\":4078:4087   */\n      dup2\n        /* \"#utility.yul\":4072:4076   */\n      dup2\n        /* \"#utility.yul\":4068:4088   */\n      sub\n        /* \"#utility.yul\":4064:4065   */\n      0x00\n        /* \"#utility.yul\":4053:4062   */\n      dup4\n        /* \"#utility.yul\":4049:4066   */\n      add\n        /* \"#utility.yul\":4042:4089   */\n      mstore\n        /* \"#utility.yul\":4106:4184   */\n      tag_96\n        /* \"#utility.yul\":4179:4183   */\n      dup2\n        /* \"#utility.yul\":4170:4176   */\n      dup5\n        /* \"#utility.yul\":4106:4184   */\n      tag_47\n      jump\t// in\n    tag_96:\n        /* \"#utility.yul\":4098:4184   */\n      swap1\n      pop\n        /* \"#utility.yul\":3878:4191   */\n      swap3\n      swap2\n      pop\n      pop\n      jump\t// out\n        /* \"#utility.yul\":4197:4274   */\n    tag_48:\n        /* \"#utility.yul\":4234:4241   */\n      0x00\n        /* \"#utility.yul\":4263:4268   */\n      dup2\n        /* \"#utility.yul\":4252:4268   */\n      swap1\n      pop\n        /* \"#utility.yul\":4197:4274   */\n      swap2\n      swap1\n      pop\n      jump\t// out\n        /* \"#utility.yul\":4280:4460   */\n    tag_49:\n        /* \"#utility.yul\":4328:4405   */\n      0x4e487b7100000000000000000000000000000000000000000000000000000000\n        /* \"#utility.yul\":4325:4326   */\n      0x00\n        /* \"#utility.yul\":4318:4406   */\n      mstore\n        /* \"#utility.yul\":4425:4429   */\n      0x12\n        /* \"#utility.yul\":4422:4423   */\n      0x04\n        /* \"#utility.yul\":4415:4430   */\n      mstore\n        /* \"#utility.yul\":4449:4453   */\n      0x24\n        /* \"#utility.yul\":4446:4447   */\n      0x00\n        /* \"#utility.yul\":4439:4454   */\n      revert\n        /* \"#utility.yul\":4466:4646   */\n    tag_50:\n        /* \"#utility.yul\":4514:4591   */\n      0x4e487b7100000000000000000000000000000000000000000000000000000000\n        /* \"#utility.yul\":4511:4512   */\n      0x00\n        /* \"#utility.yul\":4504:4592   */\n      mstore\n        /* \"#utility.yul\":4611:4615   */\n      0x11\n        /* \"#utility.yul\":4608:4609   */\n      0x04\n        /* \"#utility.yul\":4601:4616   */\n      mstore\n        /* \"#utility.yul\":4635:4639   */\n      0x24\n        /* \"#utility.yul\":4632:4633   */\n      0x00\n        /* \"#utility.yul\":4625:4640   */\n      revert\n        /* \"#utility.yul\":4652:4837   */\n    tag_16:\n        /* \"#utility.yul\":4692:4693   */\n      0x00\n        /* \"#utility.yul\":4709:4729   */\n      tag_101\n        /* \"#utility.yul\":4727:4728   */\n      dup3\n        /* \"#utility.yul\":4709:4729   */\n      tag_48\n      jump\t// in\n    tag_101:\n        /* \"#utility.yul\":4704:4729   */\n      swap2\n      pop\n        /* \"#utility.yul\":4743:4763   */\n      tag_102\n        /* \"#utility.yul\":4761:4762   */\n      dup4\n        /* \"#utility.yul\":4743:4763   */\n      tag_48\n      jump\t// in\n    tag_102:\n        /* \"#utility.yul\":4738:4763   */\n      swap3\n      pop\n        /* \"#utility.yul\":4782:4783   */\n      dup3\n        /* \"#utility.yul\":4772:4807   */\n      tag_103\n      jumpi\n        /* \"#utility.yul\":4787:4805   */\n      tag_104\n      tag_49\n      jump\t// in\n    tag_104:\n        /* \"#utility.yul\":4772:4807   */\n    tag_103:\n        /* \"#utility.yul\":4829:4830   */\n      dup3\n        /* \"#utility.yul\":4826:4827   */\n      dup3\n        /* \"#utility.yul\":4822:4831   */\n      div\n        /* \"#utility.yul\":4817:4831   */\n      swap1\n      pop\n        /* \"#utility.yul\":4652:4837   */\n      swap3\n      swap2\n      pop\n      pop\n      jump\t// out\n        /* \"#utility.yul\":4843:5023   */\n    tag_19:\n        /* \"#utility.yul\":4891:4968   */\n      0x4e487b7100000000000000000000000000000000000000000000000000000000\n        /* \"#utility.yul\":4888:4889   */\n      0x00\n        /* \"#utility.yul\":4881:4969   */\n      mstore\n        /* \"#utility.yul\":4988:4992   */\n      0x32\n        /* \"#utility.yul\":4985:4986   */\n      0x04\n        /* \"#utility.yul\":4978:4993   */\n      mstore\n        /* \"#utility.yul\":5012:5016   */\n      0x24\n        /* \"#utility.yul\":5009:5010   */\n      0x00\n        /* \"#utility.yul\":5002:5017   */\n      revert\n        /* \"#utility.yul\":5029:5223   */\n    tag_21:\n        /* \"#utility.yul\":5069:5073   */\n      0x00\n        /* \"#utility.yul\":5089:5109   */\n      tag_107\n        /* \"#utility.yul\":5107:5108   */\n      dup3\n        /* \"#utility.yul\":5089:5109   */\n      tag_48\n      jump\t// in\n    tag_107:\n        /* \"#utility.yul\":5084:5109   */\n      swap2\n      pop\n        /* \"#utility.yul\":5123:5143   */\n      tag_108\n        /* \"#utility.yul\":5141:5142   */\n      dup4\n        /* \"#utility.yul\":5123:5143   */\n      tag_48\n      jump\t// in\n    tag_108:\n        /* \"#utility.yul\":5118:5143   */\n      swap3\n      pop\n        /* \"#utility.yul\":5167:5168   */\n      dup3\n        /* \"#utility.yul\":5164:5165   */\n      dup3\n        /* \"#utility.yul\":5160:5169   */\n      sub\n        /* \"#utility.yul\":5152:5169   */\n      swap1\n      pop\n        /* \"#utility.yul\":5191:5192   */\n      dup2\n        /* \"#utility.yul\":5185:5189   */\n      dup2\n        /* \"#utility.yul\":5182:5193   */\n      gt\n        /* \"#utility.yul\":5179:5216   */\n      iszero\n      tag_109\n      jumpi\n        /* \"#utility.yul\":5196:5214   */\n      tag_110\n      tag_50\n      jump\t// in\n    tag_110:\n        /* \"#utility.yul\":5179:5216   */\n    tag_109:\n        /* \"#utility.yul\":5029:5223   */\n      swap3\n      swap2\n      pop\n      pop\n      jump\t// out\n\n    auxdata: 0xa264697066735822122014e0736b1094a45d9bb5355553374ae66153ef1def582bb82a601639345ca54964736f6c634300081e0033\n}\n",
				"bytecode": {
					"linkReferences": {},
					"object": "6080604052348015600e575f5ffd5b506104da8061001c5f395ff3fe608060405234801561000f575f5ffd5b5060043610610029575f3560e01c8063064767aa1461002d575b5f5ffd5b610047600480360381019061004291906102ea565b61005d565b6040516100549190610391565b60405180910390f35b60605f8290505f815190506001811161007a578392505050610198565b5f5f90505b60028261008c9190610414565b811015610191575f8382815181106100a7576100a6610444565b5b602001015160f81c60f81b905083600183856100c39190610471565b6100cd9190610471565b815181106100de576100dd610444565b5b602001015160f81c60f81b8483815181106100fc576100fb610444565b5b60200101907effffffffffffffffffffffffffffffffffffffffffffffffffffffffffffff191690815f1a90535080846001848661013a9190610471565b6101449190610471565b8151811061015557610154610444565b5b60200101907effffffffffffffffffffffffffffffffffffffffffffffffffffffffffffff191690815f1a90535050808060010191505061007f565b5081925050505b919050565b5f604051905090565b5f5ffd5b5f5ffd5b5f5ffd5b5f5ffd5b5f601f19601f8301169050919050565b7f4e487b71000000000000000000000000000000000000000000000000000000005f52604160045260245ffd5b6101fc826101b6565b810181811067ffffffffffffffff8211171561021b5761021a6101c6565b5b80604052505050565b5f61022d61019d565b905061023982826101f3565b919050565b5f67ffffffffffffffff821115610258576102576101c6565b5b610261826101b6565b9050602081019050919050565b828183375f83830152505050565b5f61028e6102898461023e565b610224565b9050828152602081018484840111156102aa576102a96101b2565b5b6102b584828561026e565b509392505050565b5f82601f8301126102d1576102d06101ae565b5b81356102e184826020860161027c565b91505092915050565b5f602082840312156102ff576102fe6101a6565b5b5f82013567ffffffffffffffff81111561031c5761031b6101aa565b5b610328848285016102bd565b91505092915050565b5f81519050919050565b5f82825260208201905092915050565b8281835e5f83830152505050565b5f61036382610331565b61036d818561033b565b935061037d81856020860161034b565b610386816101b6565b840191505092915050565b5f6020820190508181035f8301526103a98184610359565b905092915050565b5f819050919050565b7f4e487b71000000000000000000000000000000000000000000000000000000005f52601260045260245ffd5b7f4e487b71000000000000000000000000000000000000000000000000000000005f52601160045260245ffd5b5f61041e826103b1565b9150610429836103b1565b925082610439576104386103ba565b5b828204905092915050565b7f4e487b71000000000000000000000000000000000000000000000000000000005f52603260045260245ffd5b5f61047b826103b1565b9150610486836103b1565b925082820390508181111561049e5761049d6103e7565b5b9291505056fea264697066735822122014e0736b1094a45d9bb5355553374ae66153ef1def582bb82a601639345ca54964736f6c634300081e0033",
					"opcodes": "PUSH1 0x80 PUSH1 0x40 MSTORE CALLVALUE DUP1 ISZERO PUSH1 0xE JUMPI PUSH0 PUSH0 REVERT JUMPDEST POP PUSH2 0x4DA DUP1 PUSH2 0x1C PUSH0 CODECOPY PUSH0 RETURN INVALID PUSH1 0x80 PUSH1 0x40 MSTORE CALLVALUE DUP1 ISZERO PUSH2 0xF JUMPI PUSH0 PUSH0 REVERT JUMPDEST POP PUSH1 0x4 CALLDATASIZE LT PUSH2 0x29 JUMPI PUSH0 CALLDATALOAD PUSH1 0xE0 SHR DUP1 PUSH4 0x64767AA EQ PUSH2 0x2D JUMPI JUMPDEST PUSH0 PUSH0 REVERT JUMPDEST PUSH2 0x47 PUSH1 0x4 DUP1 CALLDATASIZE SUB DUP2 ADD SWAP1 PUSH2 0x42 SWAP2 SWAP1 PUSH2 0x2EA JUMP JUMPDEST PUSH2 0x5D JUMP JUMPDEST PUSH1 0x40 MLOAD PUSH2 0x54 SWAP2 SWAP1 PUSH2 0x391 JUMP JUMPDEST PUSH1 0x40 MLOAD DUP1 SWAP2 SUB SWAP1 RETURN JUMPDEST PUSH1 0x60 PUSH0 DUP3 SWAP1 POP PUSH0 DUP2 MLOAD SWAP1 POP PUSH1 0x1 DUP2 GT PUSH2 0x7A JUMPI DUP4 SWAP3 POP POP POP PUSH2 0x198 JUMP JUMPDEST PUSH0 PUSH0 SWAP1 POP JUMPDEST PUSH1 0x2 DUP3 PUSH2 0x8C SWAP2 SWAP1 PUSH2 0x414 JUMP JUMPDEST DUP2 LT ISZERO PUSH2 0x191 JUMPI PUSH0 DUP4 DUP3 DUP2 MLOAD DUP2 LT PUSH2 0xA7 JUMPI PUSH2 0xA6 PUSH2 0x444 JUMP JUMPDEST JUMPDEST PUSH1 0x20 ADD ADD MLOAD PUSH1 0xF8 SHR PUSH1 0xF8 SHL SWAP1 POP DUP4 PUSH1 0x1 DUP4 DUP6 PUSH2 0xC3 SWAP2 SWAP1 PUSH2 0x471 JUMP JUMPDEST PUSH2 0xCD SWAP2 SWAP1 PUSH2 0x471 JUMP JUMPDEST DUP2 MLOAD DUP2 LT PUSH2 0xDE JUMPI PUSH2 0xDD PUSH2 0x444 JUMP JUMPDEST JUMPDEST PUSH1 0x20 ADD ADD MLOAD PUSH1 0xF8 SHR PUSH1 0xF8 SHL DUP5 DUP4 DUP2 MLOAD DUP2 LT PUSH2 0xFC JUMPI PUSH2 0xFB PUSH2 0x444 JUMP JUMPDEST JUMPDEST PUSH1 0x20 ADD ADD SWAP1 PUSH31 0xFFFFFFFFFFFFFFFFFFFFFFFFFFFFFFFFFFFFFFFFFFFFFFFFFFFFFFFFFFFFFF NOT AND SWAP1 DUP2 PUSH0 BYTE SWAP1 MSTORE8 POP DUP1 DUP5 PUSH1 0x1 DUP5 DUP7 PUSH2 0x13A SWAP2 SWAP1 PUSH2 0x471 JUMP JUMPDEST PUSH2 0x144 SWAP2 SWAP1 PUSH2 0x471 JUMP JUMPDEST DUP2 MLOAD DUP2 LT PUSH2 0x155 JUMPI PUSH2 0x154 PUSH2 0x444 JUMP JUMPDEST JUMPDEST PUSH1 0x20 ADD ADD SWAP1 PUSH31 0xFFFFFFFFFFFFFFFFFFFFFFFFFFFFFFFFFFFFFFFFFFFFFFFFFFFFFFFFFFFFFF NOT AND SWAP1 DUP2 PUSH0 BYTE SWAP1 MSTORE8 POP POP DUP1 DUP1 PUSH1 0x1 ADD SWAP2 POP POP PUSH2 0x7F JUMP JUMPDEST POP DUP2 SWAP3 POP POP POP JUMPDEST SWAP2 SWAP1 POP JUMP JUMPDEST PUSH0 PUSH1 0x40 MLOAD SWAP1 POP SWAP1 JUMP JUMPDEST PUSH0 PUSH0 REVERT JUMPDEST PUSH0 PUSH0 REVERT JUMPDEST PUSH0 PUSH0 REVERT JUMPDEST PUSH0 PUSH0 REVERT JUMPDEST PUSH0 PUSH1 0x1F NOT PUSH1 0x1F DUP4 ADD AND SWAP1 POP SWAP2 SWAP1 POP JUMP JUMPDEST PUSH32 0x4E487B7100000000000000000000000000000000000000000000000000000000 PUSH0 MSTORE PUSH1 0x41 PUSH1 0x4 MSTORE PUSH1 0x24 PUSH0 REVERT JUMPDEST PUSH2 0x1FC DUP3 PUSH2 0x1B6 JUMP JUMPDEST DUP2 ADD DUP2 DUP2 LT PUSH8 0xFFFFFFFFFFFFFFFF DUP3 GT OR ISZERO PUSH2 0x21B JUMPI PUSH2 0x21A PUSH2 0x1C6 JUMP JUMPDEST JUMPDEST DUP1 PUSH1 0x40 MSTORE POP POP POP JUMP JUMPDEST PUSH0 PUSH2 0x22D PUSH2 0x19D JUMP JUMPDEST SWAP1 POP PUSH2 0x239 DUP3 DUP3 PUSH2 0x1F3 JUMP JUMPDEST SWAP2 SWAP1 POP JUMP JUMPDEST PUSH0 PUSH8 0xFFFFFFFFFFFFFFFF DUP3 GT ISZERO PUSH2 0x258 JUMPI PUSH2 0x257 PUSH2 0x1C6 JUMP JUMPDEST JUMPDEST PUSH2 0x261 DUP3 PUSH2 0x1B6 JUMP JUMPDEST SWAP1 POP PUSH1 0x20 DUP2 ADD SWAP1 POP SWAP2 SWAP1 POP JUMP JUMPDEST DUP3 DUP2 DUP4 CALLDATACOPY PUSH0 DUP4 DUP4 ADD MSTORE POP POP POP JUMP JUMPDEST PUSH0 PUSH2 0x28E PUSH2 0x289 DUP5 PUSH2 0x23E JUMP JUMPDEST PUSH2 0x224 JUMP JUMPDEST SWAP1 POP DUP3 DUP2 MSTORE PUSH1 0x20 DUP2 ADD DUP5 DUP5 DUP5 ADD GT ISZERO PUSH2 0x2AA JUMPI PUSH2 0x2A9 PUSH2 0x1B2 JUMP JUMPDEST JUMPDEST PUSH2 0x2B5 DUP5 DUP3 DUP6 PUSH2 0x26E JUMP JUMPDEST POP SWAP4 SWAP3 POP POP POP JUMP JUMPDEST PUSH0 DUP3 PUSH1 0x1F DUP4 ADD SLT PUSH2 0x2D1 JUMPI PUSH2 0x2D0 PUSH2 0x1AE JUMP JUMPDEST JUMPDEST DUP2 CALLDATALOAD PUSH2 0x2E1 DUP5 DUP3 PUSH1 0x20 DUP7 ADD PUSH2 0x27C JUMP JUMPDEST SWAP2 POP POP SWAP3 SWAP2 POP POP JUMP JUMPDEST PUSH0 PUSH1 0x20 DUP3 DUP5 SUB SLT ISZERO PUSH2 0x2FF JUMPI PUSH2 0x2FE PUSH2 0x1A6 JUMP JUMPDEST JUMPDEST PUSH0 DUP3 ADD CALLDATALOAD PUSH8 0xFFFFFFFFFFFFFFFF DUP2 GT ISZERO PUSH2 0x31C JUMPI PUSH2 0x31B PUSH2 0x1AA JUMP JUMPDEST JUMPDEST PUSH2 0x328 DUP5 DUP3 DUP6 ADD PUSH2 0x2BD JUMP JUMPDEST SWAP2 POP POP SWAP3 SWAP2 POP POP JUMP JUMPDEST PUSH0 DUP2 MLOAD SWAP1 POP SWAP2 SWAP1 POP JUMP JUMPDEST PUSH0 DUP3 DUP3 MSTORE PUSH1 0x20 DUP3 ADD SWAP1 POP SWAP3 SWAP2 POP POP JUMP JUMPDEST DUP3 DUP2 DUP4 MCOPY PUSH0 DUP4 DUP4 ADD MSTORE POP POP POP JUMP JUMPDEST PUSH0 PUSH2 0x363 DUP3 PUSH2 0x331 JUMP JUMPDEST PUSH2 0x36D DUP2 DUP6 PUSH2 0x33B JUMP JUMPDEST SWAP4 POP PUSH2 0x37D DUP2 DUP6 PUSH1 0x20 DUP7 ADD PUSH2 0x34B JUMP JUMPDEST PUSH2 0x386 DUP2 PUSH2 0x1B6 JUMP JUMPDEST DUP5 ADD SWAP2 POP POP SWAP3 SWAP2 POP POP JUMP JUMPDEST PUSH0 PUSH1 0x20 DUP3 ADD SWAP1 POP DUP2 DUP2 SUB PUSH0 DUP4 ADD MSTORE PUSH2 0x3A9 DUP2 DUP5 PUSH2 0x359 JUMP JUMPDEST SWAP1 POP SWAP3 SWAP2 POP POP JUMP JUMPDEST PUSH0 DUP2 SWAP1 POP SWAP2 SWAP1 POP JUMP JUMPDEST PUSH32 0x4E487B7100000000000000000000000000000000000000000000000000000000 PUSH0 MSTORE PUSH1 0x12 PUSH1 0x4 MSTORE PUSH1 0x24 PUSH0 REVERT JUMPDEST PUSH32 0x4E487B7100000000000000000000000000000000000000000000000000000000 PUSH0 MSTORE PUSH1 0x11 PUSH1 0x4 MSTORE PUSH1 0x24 PUSH0 REVERT JUMPDEST PUSH0 PUSH2 0x41E DUP3 PUSH2 0x3B1 JUMP JUMPDEST SWAP2 POP PUSH2 0x429 DUP4 PUSH2 0x3B1 JUMP JUMPDEST SWAP3 POP DUP3 PUSH2 0x439 JUMPI PUSH2 0x438 PUSH2 0x3BA JUMP JUMPDEST JUMPDEST DUP3 DUP3 DIV SWAP1 POP SWAP3 SWAP2 POP POP JUMP JUMPDEST PUSH32 0x4E487B7100000000000000000000000000000000000000000000000000000000 PUSH0 MSTORE PUSH1 0x32 PUSH1 0x4 MSTORE PUSH1 0x24 PUSH0 REVERT JUMPDEST PUSH0 PUSH2 0x47B DUP3 PUSH2 0x3B1 JUMP JUMPDEST SWAP2 POP PUSH2 0x486 DUP4 PUSH2 0x3B1 JUMP JUMPDEST SWAP3 POP DUP3 DUP3 SUB SWAP1 POP DUP2 DUP2 GT ISZERO PUSH2 0x49E JUMPI PUSH2 0x49D PUSH2 0x3E7 JUMP JUMPDEST JUMPDEST SWAP3 SWAP2 POP POP JUMP INVALID LOG2 PUSH5 0x6970667358 0x22 SLT KECCAK256 EQ RJUMP 0x736B LT SWAP5 LOG4 TSTORE SWAP12 0xB5 CALLDATALOAD SSTORE MSTORE8 CALLDATACOPY BLOBBASEFEE DUPN 0x61 MSTORE8 0xEF SAR 0xEF PC 0x2B 0xB8 0x2A PUSH1 0x16 CODECOPY CALLVALUE TLOAD 0xA5 BLOBHASH PUSH5 0x736F6C6343 STOP ADDMOD 0x1E STOP CALLER "
				},
				"gasEstimates": {
					"creation": {
						"codeDepositCost": "248400",
						"executionCost": "285",
						"totalCost": "248685"
					},
					"external": {
						"reverse(string)": "infinite"
					}
				},
				"methodIdentifiers": {
					"reverse(string)": "064767aa"
				}
			},
			"storageLayout": {
				"storage": [],
				"types": null
			},
			"userdoc": {
				"kind": "user",
				"methods": {},
				"version": 1
			}
		}
	}
}