{
	"contracts/BinarySearch.sol": {
		"BinarySearch": {
			"abi": [
				{
					"inputs": [
						{
							"internalType": "int256",
							"name": "num",
							"type": "int256"
						},
						{
							"internalType": "int256[]",
							"name": "sortedNums",
							"type": "int256[]"
						}
					],
					"name": "binarySearch",
					"outputs": [
						{
							"internalType": "uint256",
							"name": "index",
							"type": "uint256"
						}
					],
					"stateMutability": "pure",
					"type": "function"
				}
			],
			"devdoc": {
				"kind": "dev",
				"methods": {},
				"version": 1
			},
			"evm": {
				"assembly": "    /* \"contracts/BinarySearch.sol\":60:702  contract BinarySearch {... */\n  mstore(0x40, 0x80)\n  callvalue\n  dup1\n  iszero\n  tag_1\n  jumpi\n  revert(0x00, 0x00)\ntag_1:\n  pop\n  dataSize(sub_0)\n  dup1\n  dataOffset(sub_0)\n  0x00\n  codecopy\n  0x00\n  return\nstop\n\nsub_0: assembly {\n        /* \"contracts/BinarySearch.sol\":60:702  contract BinarySearch {... */\n      mstore(0x40, 0x80)\n      callvalue\n      dup1\n      iszero\n      tag_1\n      jumpi\n      revert(0x00, 0x00)\n    tag_1:\n      pop\n      jumpi(tag_2, lt(calldatasize, 0x04))\n      shr(0xe0, calldataload(0x00))\n      dup1\n      0xcb5ffcc7\n      eq\n      tag_3\n      jumpi\n    tag_2:\n      revert(0x00, 0x00)\n        /* \"contracts/BinarySearch.sol\":93:246  function binarySearch(int num, int[] calldata sortedNums) public pure returns (uint index) {... */\n    tag_3:\n      tag_4\n      0x04\n      dup1\n      calldatasize\n      sub\n      dup2\n      add\n      swap1\n      tag_5\n      swap2\n      swap1\n      tag_6\n      jump\t// in\n    tag_5:\n      tag_7\n      jump\t// in\n    tag_4:\n      mload(0x40)\n      tag_8\n      swap2\n      swap1\n      tag_9\n      jump\t// in\n    tag_8:\n      mload(0x40)\n      dup1\n      swap2\n      sub\n      swap1\n      return\n    tag_7:\n        /* \"contracts/BinarySearch.sol\":172:182  uint index */\n      0x00\n        /* \"contracts/BinarySearch.sol\":203:239  binarySearchIntenal(num, sortedNums) */\n      tag_11\n        /* \"contracts/BinarySearch.sol\":223:226  num */\n      dup5\n        /* \"contracts/BinarySearch.sol\":228:238  sortedNums */\n      dup5\n      dup5\n        /* \"contracts/BinarySearch.sol\":203:222  binarySearchIntenal */\n      tag_12\n        /* \"contracts/BinarySearch.sol\":203:239  binarySearchIntenal(num, sortedNums) */\n      jump\t// in\n    tag_11:\n        /* \"contracts/BinarySearch.sol\":195:239  return  binarySearchIntenal(num, sortedNums) */\n      swap1\n      pop\n        /* \"contracts/BinarySearch.sol\":93:246  function binarySearch(int num, int[] calldata sortedNums) public pure returns (uint index) {... */\n      swap4\n      swap3\n      pop\n      pop\n      pop\n      jump\t// out\n        /* \"contracts/BinarySearch.sol\":252:700  function binarySearchIntenal(int num, int[] calldata sortedNums) private  pure returns (uint index) {... */\n    tag_12:\n        /* \"contracts/BinarySearch.sol\":340:350  uint index */\n      0x00\n        /* \"contracts/BinarySearch.sol\":363:374  uint256 len */\n      0x00\n        /* \"contracts/BinarySearch.sol\":377:387  sortedNums */\n      dup4\n      dup4\n        /* \"contracts/BinarySearch.sol\":377:394  sortedNums.length */\n      swap1\n      pop\n        /* \"contracts/BinarySearch.sol\":363:394  uint256 len = sortedNums.length */\n      swap1\n      pop\n        /* \"contracts/BinarySearch.sol\":404:415  uint256 mid */\n      0x00\n        /* \"contracts/BinarySearch.sol\":422:423  2 */\n      0x02\n        /* \"contracts/BinarySearch.sol\":418:421  len */\n      dup3\n        /* \"contracts/BinarySearch.sol\":418:423  len/2 */\n      tag_14\n      swap2\n      swap1\n      tag_15\n      jump\t// in\n    tag_14:\n        /* \"contracts/BinarySearch.sol\":404:423  uint256 mid = len/2 */\n      swap1\n      pop\n        /* \"contracts/BinarySearch.sol\":445:455  sortedNums */\n      dup5\n      dup5\n        /* \"contracts/BinarySearch.sol\":456:459  mid */\n      dup3\n        /* \"contracts/BinarySearch.sol\":445:460  sortedNums[mid] */\n      dup2\n      dup2\n      lt\n      tag_16\n      jumpi\n      tag_17\n      tag_18\n      jump\t// in\n    tag_17:\n    tag_16:\n      swap1\n      pop\n      0x20\n      mul\n      add\n      calldataload\n        /* \"contracts/BinarySearch.sol\":438:441  num */\n      dup7\n        /* \"contracts/BinarySearch.sol\":438:460  num == sortedNums[mid] */\n      sub\n        /* \"contracts/BinarySearch.sol\":434:497  if (num == sortedNums[mid]) {... */\n      tag_19\n      jumpi\n        /* \"contracts/BinarySearch.sol\":483:486  mid */\n      dup1\n        /* \"contracts/BinarySearch.sol\":476:486  return mid */\n      swap3\n      pop\n      pop\n      pop\n      jump(tag_13)\n        /* \"contracts/BinarySearch.sol\":434:497  if (num == sortedNums[mid]) {... */\n    tag_19:\n        /* \"contracts/BinarySearch.sol\":517:527  sortedNums */\n      dup5\n      dup5\n        /* \"contracts/BinarySearch.sol\":528:531  mid */\n      dup3\n        /* \"contracts/BinarySearch.sol\":517:532  sortedNums[mid] */\n      dup2\n      dup2\n      lt\n      tag_20\n      jumpi\n      tag_21\n      tag_18\n      jump\t// in\n    tag_21:\n    tag_20:\n      swap1\n      pop\n      0x20\n      mul\n      add\n      calldataload\n        /* \"contracts/BinarySearch.sol\":511:514  num */\n      dup7\n        /* \"contracts/BinarySearch.sol\":511:532  num < sortedNums[mid] */\n      slt\n        /* \"contracts/BinarySearch.sol\":507:693  if (num < sortedNums[mid]) {... */\n      iszero\n      tag_22\n      jumpi\n        /* \"contracts/BinarySearch.sol\":556:599  binarySearchIntenal(num, sortedNums[0:mid]) */\n      tag_23\n        /* \"contracts/BinarySearch.sol\":576:579  num */\n      dup7\n        /* \"contracts/BinarySearch.sol\":581:591  sortedNums */\n      dup7\n      dup7\n        /* \"contracts/BinarySearch.sol\":592:593  0 */\n      0x00\n        /* \"contracts/BinarySearch.sol\":581:598  sortedNums[0:mid] */\n      swap1\n        /* \"contracts/BinarySearch.sol\":594:597  mid */\n      dup6\n        /* \"contracts/BinarySearch.sol\":581:598  sortedNums[0:mid] */\n      swap3\n      tag_24\n      swap4\n      swap3\n      swap2\n      swap1\n      tag_25\n      jump\t// in\n    tag_24:\n        /* \"contracts/BinarySearch.sol\":556:575  binarySearchIntenal */\n      tag_12\n        /* \"contracts/BinarySearch.sol\":556:599  binarySearchIntenal(num, sortedNums[0:mid]) */\n      jump\t// in\n    tag_23:\n        /* \"contracts/BinarySearch.sol\":548:599  return  binarySearchIntenal(num, sortedNums[0:mid]) */\n      swap3\n      pop\n      pop\n      pop\n      jump(tag_13)\n        /* \"contracts/BinarySearch.sol\":507:693  if (num < sortedNums[mid]) {... */\n    tag_22:\n        /* \"contracts/BinarySearch.sol\":637:682  binarySearchIntenal(num, sortedNums[mid:len]) */\n      tag_27\n        /* \"contracts/BinarySearch.sol\":657:660  num */\n      dup7\n        /* \"contracts/BinarySearch.sol\":662:672  sortedNums */\n      dup7\n      dup7\n        /* \"contracts/BinarySearch.sol\":673:676  mid */\n      dup5\n        /* \"contracts/BinarySearch.sol\":662:681  sortedNums[mid:len] */\n      swap1\n        /* \"contracts/BinarySearch.sol\":677:680  len */\n      dup7\n        /* \"contracts/BinarySearch.sol\":662:681  sortedNums[mid:len] */\n      swap3\n      tag_28\n      swap4\n      swap3\n      swap2\n      swap1\n      tag_25\n      jump\t// in\n    tag_28:\n        /* \"contracts/BinarySearch.sol\":637:656  binarySearchIntenal */\n      tag_12\n        /* \"contracts/BinarySearch.sol\":637:682  binarySearchIntenal(num, sortedNums[mid:len]) */\n      jump\t// in\n    tag_27:\n        /* \"contracts/BinarySearch.sol\":629:682  return  binarySearchIntenal(num, sortedNums[mid:len]) */\n      swap3\n      pop\n      pop\n      pop\n        /* \"contracts/BinarySearch.sol\":252:700  function binarySearchIntenal(int num, int[] calldata sortedNums) private  pure returns (uint index) {... */\n    tag_13:\n      swap4\n      swap3\n      pop\n      pop\n      pop\n      jump\t// out\n        /* \"#utility.yul\":88:205   */\n    tag_30:\n        /* \"#utility.yul\":197:198   */\n      0x00\n        /* \"#utility.yul\":194:195   */\n      0x00\n        /* \"#utility.yul\":187:199   */\n      revert\n        /* \"#utility.yul\":211:328   */\n    tag_31:\n        /* \"#utility.yul\":320:321   */\n      0x00\n        /* \"#utility.yul\":317:318   */\n      0x00\n        /* \"#utility.yul\":310:322   */\n      revert\n        /* \"#utility.yul\":334:410   */\n    tag_32:\n        /* \"#utility.yul\":370:377   */\n      0x00\n        /* \"#utility.yul\":399:404   */\n      dup2\n        /* \"#utility.yul\":388:404   */\n      swap1\n      pop\n        /* \"#utility.yul\":334:410   */\n      swap2\n      swap1\n      pop\n      jump\t// out\n        /* \"#utility.yul\":416:536   */\n    tag_33:\n        /* \"#utility.yul\":488:511   */\n      tag_51\n        /* \"#utility.yul\":505:510   */\n      dup2\n        /* \"#utility.yul\":488:511   */\n      tag_32\n      jump\t// in\n    tag_51:\n        /* \"#utility.yul\":481:486   */\n      dup2\n        /* \"#utility.yul\":478:512   */\n      eq\n        /* \"#utility.yul\":468:530   */\n      tag_52\n      jumpi\n        /* \"#utility.yul\":526:527   */\n      0x00\n        /* \"#utility.yul\":523:524   */\n      0x00\n        /* \"#utility.yul\":516:528   */\n      revert\n        /* \"#utility.yul\":468:530   */\n    tag_52:\n        /* \"#utility.yul\":416:536   */\n      pop\n      jump\t// out\n        /* \"#utility.yul\":542:679   */\n    tag_34:\n        /* \"#utility.yul\":587:592   */\n      0x00\n        /* \"#utility.yul\":625:631   */\n      dup2\n        /* \"#utility.yul\":612:632   */\n      calldataload\n        /* \"#utility.yul\":603:632   */\n      swap1\n      pop\n        /* \"#utility.yul\":641:673   */\n      tag_54\n        /* \"#utility.yul\":667:672   */\n      dup2\n        /* \"#utility.yul\":641:673   */\n      tag_33\n      jump\t// in\n    tag_54:\n        /* \"#utility.yul\":542:679   */\n      swap3\n      swap2\n      pop\n      pop\n      jump\t// out\n        /* \"#utility.yul\":685:802   */\n    tag_35:\n        /* \"#utility.yul\":794:795   */\n      0x00\n        /* \"#utility.yul\":791:792   */\n      0x00\n        /* \"#utility.yul\":784:796   */\n      revert\n        /* \"#utility.yul\":808:925   */\n    tag_36:\n        /* \"#utility.yul\":917:918   */\n      0x00\n        /* \"#utility.yul\":914:915   */\n      0x00\n        /* \"#utility.yul\":907:919   */\n      revert\n        /* \"#utility.yul\":931:1048   */\n    tag_37:\n        /* \"#utility.yul\":1040:1041   */\n      0x00\n        /* \"#utility.yul\":1037:1038   */\n      0x00\n        /* \"#utility.yul\":1030:1042   */\n      revert\n        /* \"#utility.yul\":1070:1637   */\n    tag_38:\n        /* \"#utility.yul\":1142:1150   */\n      0x00\n        /* \"#utility.yul\":1152:1158   */\n      0x00\n        /* \"#utility.yul\":1202:1205   */\n      dup4\n        /* \"#utility.yul\":1195:1199   */\n      0x1f\n        /* \"#utility.yul\":1187:1193   */\n      dup5\n        /* \"#utility.yul\":1183:1200   */\n      add\n        /* \"#utility.yul\":1179:1206   */\n      slt\n        /* \"#utility.yul\":1169:1291   */\n      tag_59\n      jumpi\n        /* \"#utility.yul\":1210:1289   */\n      tag_60\n      tag_35\n      jump\t// in\n    tag_60:\n        /* \"#utility.yul\":1169:1291   */\n    tag_59:\n        /* \"#utility.yul\":1323:1329   */\n      dup3\n        /* \"#utility.yul\":1310:1330   */\n      calldataload\n        /* \"#utility.yul\":1300:1330   */\n      swap1\n      pop\n        /* \"#utility.yul\":1353:1371   */\n      0xffffffffffffffff\n        /* \"#utility.yul\":1345:1351   */\n      dup2\n        /* \"#utility.yul\":1342:1372   */\n      gt\n        /* \"#utility.yul\":1339:1456   */\n      iszero\n      tag_61\n      jumpi\n        /* \"#utility.yul\":1375:1454   */\n      tag_62\n      tag_36\n      jump\t// in\n    tag_62:\n        /* \"#utility.yul\":1339:1456   */\n    tag_61:\n        /* \"#utility.yul\":1489:1493   */\n      0x20\n        /* \"#utility.yul\":1481:1487   */\n      dup4\n        /* \"#utility.yul\":1477:1494   */\n      add\n        /* \"#utility.yul\":1465:1494   */\n      swap2\n      pop\n        /* \"#utility.yul\":1543:1546   */\n      dup4\n        /* \"#utility.yul\":1535:1539   */\n      0x20\n        /* \"#utility.yul\":1527:1533   */\n      dup3\n        /* \"#utility.yul\":1523:1540   */\n      mul\n        /* \"#utility.yul\":1513:1521   */\n      dup4\n        /* \"#utility.yul\":1509:1541   */\n      add\n        /* \"#utility.yul\":1506:1547   */\n      gt\n        /* \"#utility.yul\":1503:1631   */\n      iszero\n      tag_63\n      jumpi\n        /* \"#utility.yul\":1550:1629   */\n      tag_64\n      tag_37\n      jump\t// in\n    tag_64:\n        /* \"#utility.yul\":1503:1631   */\n    tag_63:\n        /* \"#utility.yul\":1070:1637   */\n      swap3\n      pop\n      swap3\n      swap1\n      pop\n      jump\t// out\n        /* \"#utility.yul\":1643:2343   */\n    tag_6:\n        /* \"#utility.yul\":1736:1742   */\n      0x00\n        /* \"#utility.yul\":1744:1750   */\n      0x00\n        /* \"#utility.yul\":1752:1758   */\n      0x00\n        /* \"#utility.yul\":1801:1803   */\n      0x40\n        /* \"#utility.yul\":1789:1798   */\n      dup5\n        /* \"#utility.yul\":1780:1787   */\n      dup7\n        /* \"#utility.yul\":1776:1799   */\n      sub\n        /* \"#utility.yul\":1772:1804   */\n      slt\n        /* \"#utility.yul\":1769:1888   */\n      iszero\n      tag_66\n      jumpi\n        /* \"#utility.yul\":1807:1886   */\n      tag_67\n      tag_30\n      jump\t// in\n    tag_67:\n        /* \"#utility.yul\":1769:1888   */\n    tag_66:\n        /* \"#utility.yul\":1927:1928   */\n      0x00\n        /* \"#utility.yul\":1952:2004   */\n      tag_68\n        /* \"#utility.yul\":1996:2003   */\n      dup7\n        /* \"#utility.yul\":1987:1993   */\n      dup3\n        /* \"#utility.yul\":1976:1985   */\n      dup8\n        /* \"#utility.yul\":1972:1994   */\n      add\n        /* \"#utility.yul\":1952:2004   */\n      tag_34\n      jump\t// in\n    tag_68:\n        /* \"#utility.yul\":1942:2004   */\n      swap4\n      pop\n        /* \"#utility.yul\":1898:2014   */\n      pop\n        /* \"#utility.yul\":2081:2083   */\n      0x20\n        /* \"#utility.yul\":2070:2079   */\n      dup5\n        /* \"#utility.yul\":2066:2084   */\n      add\n        /* \"#utility.yul\":2053:2085   */\n      calldataload\n        /* \"#utility.yul\":2112:2130   */\n      0xffffffffffffffff\n        /* \"#utility.yul\":2104:2110   */\n      dup2\n        /* \"#utility.yul\":2101:2131   */\n      gt\n        /* \"#utility.yul\":2098:2215   */\n      iszero\n      tag_69\n      jumpi\n        /* \"#utility.yul\":2134:2213   */\n      tag_70\n      tag_31\n      jump\t// in\n    tag_70:\n        /* \"#utility.yul\":2098:2215   */\n    tag_69:\n        /* \"#utility.yul\":2247:2326   */\n      tag_71\n        /* \"#utility.yul\":2318:2325   */\n      dup7\n        /* \"#utility.yul\":2309:2315   */\n      dup3\n        /* \"#utility.yul\":2298:2307   */\n      dup8\n        /* \"#utility.yul\":2294:2316   */\n      add\n        /* \"#utility.yul\":2247:2326   */\n      tag_38\n      jump\t// in\n    tag_71:\n        /* \"#utility.yul\":2229:2326   */\n      swap3\n      pop\n      swap3\n      pop\n        /* \"#utility.yul\":2024:2336   */\n      pop\n        /* \"#utility.yul\":1643:2343   */\n      swap3\n      pop\n      swap3\n      pop\n      swap3\n      jump\t// out\n        /* \"#utility.yul\":2349:2426   */\n    tag_39:\n        /* \"#utility.yul\":2386:2393   */\n      0x00\n        /* \"#utility.yul\":2415:2420   */\n      dup2\n        /* \"#utility.yul\":2404:2420   */\n      swap1\n      pop\n        /* \"#utility.yul\":2349:2426   */\n      swap2\n      swap1\n      pop\n      jump\t// out\n        /* \"#utility.yul\":2432:2550   */\n    tag_40:\n        /* \"#utility.yul\":2519:2543   */\n      tag_74\n        /* \"#utility.yul\":2537:2542   */\n      dup2\n        /* \"#utility.yul\":2519:2543   */\n      tag_39\n      jump\t// in\n    tag_74:\n        /* \"#utility.yul\":2514:2517   */\n      dup3\n        /* \"#utility.yul\":2507:2544   */\n      mstore\n        /* \"#utility.yul\":2432:2550   */\n      pop\n      pop\n      jump\t// out\n        /* \"#utility.yul\":2556:2778   */\n    tag_9:\n        /* \"#utility.yul\":2649:2653   */\n      0x00\n        /* \"#utility.yul\":2687:2689   */\n      0x20\n        /* \"#utility.yul\":2676:2685   */\n      dup3\n        /* \"#utility.yul\":2672:2690   */\n      add\n        /* \"#utility.yul\":2664:2690   */\n      swap1\n      pop\n        /* \"#utility.yul\":2700:2771   */\n      tag_76\n        /* \"#utility.yul\":2768:2769   */\n      0x00\n        /* \"#utility.yul\":2757:2766   */\n      dup4\n        /* \"#utility.yul\":2753:2770   */\n      add\n        /* \"#utility.yul\":2744:2750   */\n      dup5\n        /* \"#utility.yul\":2700:2771   */\n      tag_40\n      jump\t// in\n    tag_76:\n        /* \"#utility.yul\":2556:2778   */\n      swap3\n      swap2\n      pop\n      pop\n      jump\t// out\n        /* \"#utility.yul\":2784:2964   */\n    tag_41:\n        /* \"#utility.yul\":2832:2909   */\n      0x4e487b7100000000000000000000000000000000000000000000000000000000\n        /* \"#utility.yul\":2829:2830   */\n      0x00\n        /* \"#utility.yul\":2822:2910   */\n      mstore\n        /* \"#utility.yul\":2929:2933   */\n      0x12\n        /* \"#utility.yul\":2926:2927   */\n      0x04\n        /* \"#utility.yul\":2919:2934   */\n      mstore\n        /* \"#utility.yul\":2953:2957   */\n      0x24\n        /* \"#utility.yul\":2950:2951   */\n      0x00\n        /* \"#utility.yul\":2943:2958   */\n      revert\n        /* \"#utility.yul\":3156:3341   */\n    tag_15:\n        /* \"#utility.yul\":3196:3197   */\n      0x00\n        /* \"#utility.yul\":3213:3233   */\n      tag_80\n        /* \"#utility.yul\":3231:3232   */\n      dup3\n        /* \"#utility.yul\":3213:3233   */\n      tag_39\n      jump\t// in\n    tag_80:\n        /* \"#utility.yul\":3208:3233   */\n      swap2\n      pop\n        /* \"#utility.yul\":3247:3267   */\n      tag_81\n        /* \"#utility.yul\":3265:3266   */\n      dup4\n        /* \"#utility.yul\":3247:3267   */\n      tag_39\n      jump\t// in\n    tag_81:\n        /* \"#utility.yul\":3242:3267   */\n      swap3\n      pop\n        /* \"#utility.yul\":3286:3287   */\n      dup3\n        /* \"#utility.yul\":3276:3311   */\n      tag_82\n      jumpi\n        /* \"#utility.yul\":3291:3309   */\n      tag_83\n      tag_41\n      jump\t// in\n    tag_83:\n        /* \"#utility.yul\":3276:3311   */\n    tag_82:\n        /* \"#utility.yul\":3333:3334   */\n      dup3\n        /* \"#utility.yul\":3330:3331   */\n      dup3\n        /* \"#utility.yul\":3326:3335   */\n      div\n        /* \"#utility.yul\":3321:3335   */\n      swap1\n      pop\n        /* \"#utility.yul\":3156:3341   */\n      swap3\n      swap2\n      pop\n      pop\n      jump\t// out\n        /* \"#utility.yul\":3347:3527   */\n    tag_18:\n        /* \"#utility.yul\":3395:3472   */\n      0x4e487b7100000000000000000000000000000000000000000000000000000000\n        /* \"#utility.yul\":3392:3393   */\n      0x00\n        /* \"#utility.yul\":3385:3473   */\n      mstore\n        /* \"#utility.yul\":3492:3496   */\n      0x32\n        /* \"#utility.yul\":3489:3490   */\n      0x04\n        /* \"#utility.yul\":3482:3497   */\n      mstore\n        /* \"#utility.yul\":3516:3520   */\n      0x24\n        /* \"#utility.yul\":3513:3514   */\n      0x00\n        /* \"#utility.yul\":3506:3521   */\n      revert\n        /* \"#utility.yul\":3533:3650   */\n    tag_43:\n        /* \"#utility.yul\":3642:3643   */\n      0x00\n        /* \"#utility.yul\":3639:3640   */\n      0x00\n        /* \"#utility.yul\":3632:3644   */\n      revert\n        /* \"#utility.yul\":3656:3773   */\n    tag_44:\n        /* \"#utility.yul\":3765:3766   */\n      0x00\n        /* \"#utility.yul\":3762:3763   */\n      0x00\n        /* \"#utility.yul\":3755:3767   */\n      revert\n        /* \"#utility.yul\":3779:4264   */\n    tag_25:\n        /* \"#utility.yul\":3899:3908   */\n      0x00\n        /* \"#utility.yul\":3910:3919   */\n      0x00\n        /* \"#utility.yul\":3948:3956   */\n      dup6\n        /* \"#utility.yul\":3936:3946   */\n      dup6\n        /* \"#utility.yul\":3933:3957   */\n      gt\n        /* \"#utility.yul\":3930:4041   */\n      iszero\n      tag_88\n      jumpi\n        /* \"#utility.yul\":3960:4039   */\n      tag_89\n      tag_43\n      jump\t// in\n    tag_89:\n        /* \"#utility.yul\":3930:4041   */\n    tag_88:\n        /* \"#utility.yul\":4066:4072   */\n      dup4\n        /* \"#utility.yul\":4056:4064   */\n      dup7\n        /* \"#utility.yul\":4053:4073   */\n      gt\n        /* \"#utility.yul\":4050:4157   */\n      iszero\n      tag_90\n      jumpi\n        /* \"#utility.yul\":4076:4155   */\n      tag_91\n      tag_44\n      jump\t// in\n    tag_91:\n        /* \"#utility.yul\":4050:4157   */\n    tag_90:\n        /* \"#utility.yul\":4207:4209   */\n      0x20\n        /* \"#utility.yul\":4195:4205   */\n      dup6\n        /* \"#utility.yul\":4191:4210   */\n      mul\n        /* \"#utility.yul\":4183:4189   */\n      dup4\n        /* \"#utility.yul\":4179:4211   */\n      add\n        /* \"#utility.yul\":4166:4211   */\n      swap2\n      pop\n        /* \"#utility.yul\":4247:4257   */\n      dup5\n        /* \"#utility.yul\":4237:4245   */\n      dup7\n        /* \"#utility.yul\":4233:4258   */\n      sub\n        /* \"#utility.yul\":4220:4258   */\n      swap1\n      pop\n        /* \"#utility.yul\":3779:4264   */\n      swap5\n      pop\n      swap5\n      swap3\n      pop\n      pop\n      pop\n      jump\t// out\n\n    auxdata: 0xa26469706673582212203d67ebb624d2dd09a9910acc46abc706c25ee7803fd64aabf66ac5c33300b8c064736f6c634300081e0033\n}\n",
				"bytecode": {
					"linkReferences": {},
					"object": "6080604052348015600e575f5ffd5b5061034c8061001c5f395ff3fe608060405234801561000f575f5ffd5b5060043610610029575f3560e01c8063cb5ffcc71461002d575b5f5ffd5b610047600480360381019061004291906101bc565b61005d565b6040516100549190610231565b60405180910390f35b5f610069848484610072565b90509392505050565b5f5f8383905090505f6002826100889190610277565b905084848281811061009d5761009c6102a7565b5b9050602002013586036100b4578092505050610119565b8484828181106100c7576100c66102a7565b5b905060200201358612156100f9576100f08686865f9085926100eb939291906102dc565b610072565b92505050610119565b6101148686868490869261010f939291906102dc565b610072565b925050505b9392505050565b5f5ffd5b5f5ffd5b5f819050919050565b61013a81610128565b8114610144575f5ffd5b50565b5f8135905061015581610131565b92915050565b5f5ffd5b5f5ffd5b5f5ffd5b5f5f83601f84011261017c5761017b61015b565b5b8235905067ffffffffffffffff8111156101995761019861015f565b5b6020830191508360208202830111156101b5576101b4610163565b5b9250929050565b5f5f5f604084860312156101d3576101d2610120565b5b5f6101e086828701610147565b935050602084013567ffffffffffffffff81111561020157610200610124565b5b61020d86828701610167565b92509250509250925092565b5f819050919050565b61022b81610219565b82525050565b5f6020820190506102445f830184610222565b92915050565b7f4e487b71000000000000000000000000000000000000000000000000000000005f52601260045260245ffd5b5f61028182610219565b915061028c83610219565b92508261029c5761029b61024a565b5b828204905092915050565b7f4e487b71000000000000000000000000000000000000000000000000000000005f52603260045260245ffd5b5f5ffd5b5f5ffd5b5f5f858511156102ef576102ee6102d4565b5b83861115610300576102ff6102d8565b5b602085028301915084860390509450949250505056fea26469706673582212203d67ebb624d2dd09a9910acc46abc706c25ee7803fd64aabf66ac5c33300b8c064736f6c634300081e0033",
					"opcodes": "PUSH1 0x80 PUSH1 0x40 MSTORE CALLVALUE DUP1 ISZERO PUSH1 0xE JUMPI PUSH0 PUSH0 REVERT JUMPDEST POP PUSH2 0x34C DUP1 PUSH2 0x1C PUSH0 CODECOPY PUSH0 RETURN INVALID PUSH1 0x80 PUSH1 0x40 MSTORE CALLVALUE DUP1 ISZERO PUSH2 0xF JUMPI PUSH0 PUSH0 REVERT JUMPDEST POP PUSH1 0x4 CALLDATASIZE LT PUSH2 0x29 JUMPI PUSH0 CALLDATALOAD PUSH1 0xE0 SHR DUP1 PUSH4 0xCB5FFCC7 EQ PUSH2 0x2D JUMPI JUMPDEST PUSH0 PUSH0 REVERT JUMPDEST PUSH2 0x47 PUSH1 0x4 DUP1 CALLDATASIZE SUB DUP2 ADD SWAP1 PUSH2 0x42 SWAP2 SWAP1 PUSH2 0x1BC JUMP JUMPDEST PUSH2 0x5D JUMP JUMPDEST PUSH1 0x40 MLOAD PUSH2 0x54 SWAP2 SWAP1 PUSH2 0x231 JUMP JUMPDEST PUSH1 0x40 MLOAD DUP1 SWAP2 SUB SWAP1 RETURN JUMPDEST PUSH0 PUSH2 0x69 DUP5 DUP5 DUP5 PUSH2 0x72 JUMP JUMPDEST SWAP1 POP SWAP4 SWAP3 POP POP POP JUMP JUMPDEST PUSH0 PUSH0 DUP4 DUP4 SWAP1 POP SWAP1 POP PUSH0 PUSH1 0x2 DUP3 PUSH2 0x88 SWAP2 SWAP1 PUSH2 0x277 JUMP JUMPDEST SWAP1 POP DUP5 DUP5 DUP3 DUP2 DUP2 LT PUSH2 0x9D JUMPI PUSH2 0x9C PUSH2 0x2A7 JUMP JUMPDEST JUMPDEST SWAP1 POP PUSH1 0x20 MUL ADD CALLDATALOAD DUP7 SUB PUSH2 0xB4 JUMPI DUP1 SWAP3 POP POP POP PUSH2 0x119 JUMP JUMPDEST DUP5 DUP5 DUP3 DUP2 DUP2 LT PUSH2 0xC7 JUMPI PUSH2 0xC6 PUSH2 0x2A7 JUMP JUMPDEST JUMPDEST SWAP1 POP PUSH1 0x20 MUL ADD CALLDATALOAD DUP7 SLT ISZERO PUSH2 0xF9 JUMPI PUSH2 0xF0 DUP7 DUP7 DUP7 PUSH0 SWAP1 DUP6 SWAP3 PUSH2 0xEB SWAP4 SWAP3 SWAP2 SWAP1 PUSH2 0x2DC JUMP JUMPDEST PUSH2 0x72 JUMP JUMPDEST SWAP3 POP POP POP PUSH2 0x119 JUMP JUMPDEST PUSH2 0x114 DUP7 DUP7 DUP7 DUP5 SWAP1 DUP7 SWAP3 PUSH2 0x10F SWAP4 SWAP3 SWAP2 SWAP1 PUSH2 0x2DC JUMP JUMPDEST PUSH2 0x72 JUMP JUMPDEST SWAP3 POP POP POP JUMPDEST SWAP4 SWAP3 POP POP POP JUMP JUMPDEST PUSH0 PUSH0 REVERT JUMPDEST PUSH0 PUSH0 REVERT JUMPDEST PUSH0 DUP2 SWAP1 POP SWAP2 SWAP1 POP JUMP JUMPDEST PUSH2 0x13A DUP2 PUSH2 0x128 JUMP JUMPDEST DUP2 EQ PUSH2 0x144 JUMPI PUSH0 PUSH0 REVERT JUMPDEST POP JUMP JUMPDEST PUSH0 DUP2 CALLDATALOAD SWAP1 POP PUSH2 0x155 DUP2 PUSH2 0x131 JUMP JUMPDEST SWAP3 SWAP2 POP POP JUMP JUMPDEST PUSH0 PUSH0 REVERT JUMPDEST PUSH0 PUSH0 REVERT JUMPDEST PUSH0 PUSH0 REVERT JUMPDEST PUSH0 PUSH0 DUP4 PUSH1 0x1F DUP5 ADD SLT PUSH2 0x17C JUMPI PUSH2 0x17B PUSH2 0x15B JUMP JUMPDEST JUMPDEST DUP3 CALLDATALOAD SWAP1 POP PUSH8 0xFFFFFFFFFFFFFFFF DUP2 GT ISZERO PUSH2 0x199 JUMPI PUSH2 0x198 PUSH2 0x15F JUMP JUMPDEST JUMPDEST PUSH1 0x20 DUP4 ADD SWAP2 POP DUP4 PUSH1 0x20 DUP3 MUL DUP4 ADD GT ISZERO PUSH2 0x1B5 JUMPI PUSH2 0x1B4 PUSH2 0x163 JUMP JUMPDEST JUMPDEST SWAP3 POP SWAP3 SWAP1 POP JUMP JUMPDEST PUSH0 PUSH0 PUSH0 PUSH1 0x40 DUP5 DUP7 SUB SLT ISZERO PUSH2 0x1D3 JUMPI PUSH2 0x1D2 PUSH2 0x120 JUMP JUMPDEST JUMPDEST PUSH0 PUSH2 0x1E0 DUP7 DUP3 DUP8 ADD PUSH2 0x147 JUMP JUMPDEST SWAP4 POP POP PUSH1 0x20 DUP5 ADD CALLDATALOAD PUSH8 0xFFFFFFFFFFFFFFFF DUP2 GT ISZERO PUSH2 0x201 JUMPI PUSH2 0x200 PUSH2 0x124 JUMP JUMPDEST JUMPDEST PUSH2 0x20D DUP7 DUP3 DUP8 ADD PUSH2 0x167 JUMP JUMPDEST SWAP3 POP SWAP3 POP POP SWAP3 POP SWAP3 POP SWAP3 JUMP JUMPDEST PUSH0 DUP2 SWAP1 POP SWAP2 SWAP1 POP JUMP JUMPDEST PUSH2 0x22B DUP2 PUSH2 0x219 JUMP JUMPDEST DUP3 MSTORE POP POP JUMP JUMPDEST PUSH0 PUSH1 0x20 DUP3 ADD SWAP1 POP PUSH2 0x244 PUSH0 DUP4 ADD DUP5 PUSH2 0x222 JUMP JUMPDEST SWAP3 SWAP2 POP POP JUMP JUMPDEST PUSH32 0x4E487B7100000000000000000000000000000000000000000000000000000000 PUSH0 MSTORE PUSH1 0x12 PUSH1 0x4 MSTORE PUSH1 0x24 PUSH0 REVERT JUMPDEST PUSH0 PUSH2 0x281 DUP3 PUSH2 0x219 JUMP JUMPDEST SWAP2 POP PUSH2 0x28C DUP4 PUSH2 0x219 JUMP JUMPDEST SWAP3 POP DUP3 PUSH2 0x29C JUMPI PUSH2 0x29B PUSH2 0x24A JUMP JUMPDEST JUMPDEST DUP3 DUP3 DIV SWAP1 POP SWAP3 SWAP2 POP POP JUMP JUMPDEST PUSH32 0x4E487B7100000000000000000000000000000000000000000000000000000000 PUSH0 MSTORE PUSH1 0x32 PUSH1 0x4 MSTORE PUSH1 0x24 PUSH0 REVERT JUMPDEST PUSH0 PUSH0 REVERT JUMPDEST PUSH0 PUSH0 REVERT JUMPDEST PUSH0 PUSH0 DUP6 DUP6 GT ISZERO PUSH2 0x2EF JUMPI PUSH2 0x2EE PUSH2 0x2D4 JUMP JUMPDEST JUMPDEST DUP4 DUP7 GT ISZERO PUSH2 0x300 JUMPI PUSH2 0x2FF PUSH2 0x2D8 JUMP JUMPDEST JUMPDEST PUSH1 0x20 DUP6 MUL DUP4 ADD SWAP2 POP DUP5 DUP7 SUB SWAP1 POP SWAP5 POP SWAP5 SWAP3 POP POP POP JUMP INVALID LOG2 PUSH5 0x6970667358 0x22 SLT KECCAK256 RETURNDATASIZE PUSH8 0xEBB624D2DD09A991 EXP 0xCC CHAINID 0xAB 0xC7 MOD 0xC2 MCOPY SWAPN 0x80 EXTCODEHASH 0xD6 BLOBBASEFEE 0xAB 0xF6 PUSH11 0xC5C33300B8C064736F6C63 NUMBER STOP ADDMOD 0x1E STOP CALLER "
				},
				"gasEstimates": {
					"creation": {
						"codeDepositCost": "168800",
						"executionCost": "212",
						"totalCost": "169012"
					},
					"external": {
						"binarySearch(int256,int256[])": "infinite"
					},
					"internal": {
						"binarySearchIntenal(int256,int256[] calldata)": "infinite"
					}
				},
				"methodIdentifiers": {
					"binarySearch(int256,int256[])": "cb5ffcc7"
				}
			},
			"storageLayout": {
				"storage": [],
				"types": null
			},
			"userdoc": {
				"kind": "user",
				"methods": {},
				"version": 1
			}
		}
	}
}